{
  "contractName": "Devices",
  "abi": [
    {
      "constant": false,
      "inputs": [
        {
          "name": "_owner",
          "type": "address"
        },
        {
          "name": "_name",
          "type": "string"
        },
        {
          "name": "_id",
          "type": "string"
        }
      ],
      "name": "add",
      "outputs": [],
      "payable": false,
      "stateMutability": "nonpayable",
      "type": "function"
    },
    {
      "constant": false,
      "inputs": [
        {
          "name": "_owner",
          "type": "address"
        },
        {
          "name": "id",
          "type": "uint256"
        }
      ],
      "name": "remove",
      "outputs": [],
      "payable": false,
      "stateMutability": "nonpayable",
      "type": "function"
    },
    {
      "constant": true,
      "inputs": [
        {
          "name": "_owner",
          "type": "address"
        }
      ],
      "name": "specific",
      "outputs": [
        {
          "components": [
            {
              "name": "name",
              "type": "string"
            },
            {
              "name": "id",
              "type": "string"
            }
          ],
          "name": "",
          "type": "tuple[]"
        }
      ],
      "payable": false,
      "stateMutability": "view",
      "type": "function"
    },
    {
      "constant": true,
      "inputs": [
        {
          "name": "_owner",
          "type": "address"
        },
        {
          "name": "id",
          "type": "uint256"
        }
      ],
      "name": "specific",
      "outputs": [
        {
          "components": [
            {
              "name": "name",
              "type": "string"
            },
            {
              "name": "id",
              "type": "string"
            }
          ],
          "name": "",
          "type": "tuple"
        }
      ],
      "payable": false,
      "stateMutability": "view",
      "type": "function"
    }
  ],
  "bytecode": "0x608060405234801561001057600080fd5b50610969806100206000396000f3fe6080604052600436106100615763ffffffff7c010000000000000000000000000000000000000000000000000000000060003504166346bc7fd98114610066578063abe7f1ab14610088578063e2faa76e146100a8578063f69b5389146100de575b600080fd5b34801561007257600080fd5b506100866100813660046106ba565b61010b565b005b34801561009457600080fd5b506100866100a3366004610737565b610194565b3480156100b457600080fd5b506100c86100c3366004610694565b6101f3565b6040516100d59190610848565b60405180910390f35b3480156100ea57600080fd5b506100fe6100f9366004610737565b61039f565b6040516100d59190610859565b73ffffffffffffffffffffffffffffffffffffffff8316600090815260208181526040808320815180830190925285825281830185905280546001810180835591855293839020825180519295939460029094029091019261017292849290910190610528565b50602082810151805161018b9260018501920190610528565b50505050505050565b73ffffffffffffffffffffffffffffffffffffffff821660009081526020819052604090208054829081106101c557fe5b600091825260208220600290910201906101df82826105a6565b6101ed6001830160006105a6565b50505050565b73ffffffffffffffffffffffffffffffffffffffff8116600090815260208181526040808320805482518185028101850190935280835260609492939192909184015b828210156103945760008481526020908190206040805160028681029093018054600181161561010002600019011693909304601f8101859004909402810160609081018352918101848152909384928491908401828280156102da5780601f106102af576101008083540402835291602001916102da565b820191906000526020600020905b8154815290600101906020018083116102bd57829003601f168201915b50505050508152602001600182018054600181600116156101000203166002900480601f01602080910402602001604051908101604052809291908181526020018280546001816001161561010002031660029004801561037c5780601f106103515761010080835404028352916020019161037c565b820191906000526020600020905b81548152906001019060200180831161035f57829003601f168201915b50505050508152505081526020019060010190610236565b505050509050919050565b6103a76105ed565b73ffffffffffffffffffffffffffffffffffffffff831660009081526020819052604090208054839081106103d857fe5b60009182526020918290206040805160029384029092018054600181161561010002600019011693909304601f810185900490940282016060908101825290820184815291938492918491908401828280156104755780601f1061044a57610100808354040283529160200191610475565b820191906000526020600020905b81548152906001019060200180831161045857829003601f168201915b50505050508152602001600182018054600181600116156101000203166002900480601f0160208091040260200160405190810160405280929190818152602001828054600181600116156101000203166002900480156105175780601f106104ec57610100808354040283529160200191610517565b820191906000526020600020905b8154815290600101906020018083116104fa57829003601f168201915b505050505081525050905092915050565b828054600181600116156101000203166002900490600052602060002090601f016020900481019282601f1061056957805160ff1916838001178555610596565b82800160010185558215610596579182015b8281111561059657825182559160200191906001019061057b565b506105a2929150610604565b5090565b50805460018160011615610100020316600290046000825580601f106105cc57506105ea565b601f0160209004906000526020600020908101906105ea9190610604565b50565b604080518082019091526060808252602082015290565b61061e91905b808211156105a2576000815560010161060a565b90565b600061062d82356108dc565b9392505050565b6000601f8201831361064557600080fd5b813561065861065382610891565b61086a565b9150808252602083016020830185838301111561067457600080fd5b61067f8382846108ed565b50505092915050565b600061062d823561061e565b6000602082840312156106a657600080fd5b60006106b28484610621565b949350505050565b6000806000606084860312156106cf57600080fd5b60006106db8686610621565b935050602084013567ffffffffffffffff8111156106f857600080fd5b61070486828701610634565b925050604084013567ffffffffffffffff81111561072157600080fd5b61072d86828701610634565b9150509250925092565b6000806040838503121561074a57600080fd5b60006107568585610621565b925050602061076785828601610688565b9150509250929050565b600061077c826108bf565b80845260208401935083602082028501610795856108b9565b60005b848110156107cc5783830388526107b083835161080d565b92506107bb826108b9565b602098909801979150600101610798565b50909695505050505050565b60006107e3826108bf565b8084526107f78160208601602086016108f9565b61080081610925565b9093016020019392505050565b805160408084526000919084019061082582826107d8565b9150506020830151848203602086015261083f82826107d8565b95945050505050565b6020808252810161062d8184610771565b6020808252810161062d818461080d565b60405181810167ffffffffffffffff8111828210171561088957600080fd5b604052919050565b600067ffffffffffffffff8211156108a857600080fd5b506020601f91909101601f19160190565b60200190565b5190565b73ffffffffffffffffffffffffffffffffffffffff1690565b60006108e7826108c3565b92915050565b82818337506000910152565b60005b838110156109145781810151838201526020016108fc565b838111156101ed5750506000910152565b601f01601f19169056fea265627a7a723058205416656077a2f6506b70f11943d3715e7a61535bd5510b3c75357775fbdf1d246c6578706572696d656e74616cf50037",
  "source": "pragma solidity ^0.5.0;\npragma experimental ABIEncoderV2;\n\ncontract Devices {\n\n   // MAP OF USER OWNED DEVICES\n   mapping (address => Device[]) devices;\n\n   // DEVICE STRUCT\n   struct Device {\n      string name;\n      string id;\n   }\n\n   // ADD/UPDATE DEVICE\n   function add(address _owner, string memory _name, string memory _id) public {\n      devices[_owner].push(Device({\n         name: _name,\n         id: _id\n      }));\n   }\n\n   // DELETE DEVICE\n   function remove(address _owner, uint id) public {\n      delete devices[_owner][id];\n   }\n\n   // FETCH SPECIFIC DEVICE\n   function specific(address _owner, uint id) public view returns(Device memory) {\n      return devices[_owner][id];\n   }\n\n   // FETCH ALL USER OWNED DEVICES\n   function specific(address _owner) public view returns(Device[] memory) {\n      return devices[_owner];\n   }\n}",
  "sourcePath": "/home/bdalab/wickstjo/decentralized-iot/contracts/Devices.sol",
  "compiler": {
    "name": "solc",
    "version": "0.5.0+commit.1d4f565a.Emscripten.clang"
  },
  "schemaVersion": "3.0.9",
  "updatedAt": "2019-06-03T06:32:07.686Z",
  "devdoc": {
    "methods": {}
  },
  "userdoc": {
    "methods": {}
  }
}