{
  "contractName": "Main",
  "abi": [
    {
      "inputs": [
        {
          "name": "_users",
          "type": "address"
        },
        {
          "name": "_devices",
          "type": "address"
        }
      ],
      "payable": false,
      "stateMutability": "nonpayable",
      "type": "constructor"
    },
    {
      "constant": true,
      "inputs": [
        {
          "name": "sender",
          "type": "address"
        }
      ],
      "name": "permission",
      "outputs": [
        {
          "name": "",
          "type": "bool"
        }
      ],
      "payable": false,
      "stateMutability": "view",
      "type": "function"
    },
    {
      "constant": false,
      "inputs": [
        {
          "name": "_owner",
          "type": "address"
        },
        {
          "name": "_name",
          "type": "string"
        }
      ],
      "name": "add_user",
      "outputs": [],
      "payable": false,
      "stateMutability": "nonpayable",
      "type": "function"
    }
  ],
  "bytecode": "0x608060405260028054600160a060020a031916730663713b3ebab96650b0b8b2a48015415538cd4c17905534801561003657600080fd5b506040516040806103728339810180604052604081101561005657600080fd5b50805160209091015160008054600160a060020a03938416600160a060020a031991821617909155600180549390921692169190911790556102d58061009d6000396000f3fe60806040526004361061004b5763ffffffff7c010000000000000000000000000000000000000000000000000000000060003504166368226a788114610050578063e5435b69146100a4575b600080fd5b34801561005c57600080fd5b506100906004803603602081101561007357600080fd5b503573ffffffffffffffffffffffffffffffffffffffff16610176565b604080519115158252519081900360200190f35b3480156100b057600080fd5b50610174600480360360408110156100c757600080fd5b73ffffffffffffffffffffffffffffffffffffffff82351691908101906040810160208201356401000000008111156100ff57600080fd5b82018360208201111561011157600080fd5b8035906020019184600183028401116401000000008311171561013357600080fd5b91908080601f0160208091040260200160405190810160405280939291908181526020018383808284376000920191909152509295506101a8945050505050565b005b600254600090819073ffffffffffffffffffffffffffffffffffffffff848116911614156101a2575060015b92915050565b60008054604080517f5a82d10000000000000000000000000000000000000000000000000000000000815273ffffffffffffffffffffffffffffffffffffffff86811660048301908152602483019384528651604484015286519190941694635a82d1009488948894919390926064909201916020860191908190849084905b83811015610240578181015183820152602001610228565b50505050905090810190601f16801561026d5780820380516001836020036101000a031916815260200191505b509350505050600060405180830381600087803b15801561028d57600080fd5b505af11580156102a1573d6000803e3d6000fd5b50505050505056fea165627a7a72305820d2e76e4716d415aa01f60657117216eb11a856b3576f6b56ff9f7127bdc7119d0029",
  "source": "pragma solidity ^0.5.0;\n\n// IMPORT HELPER CONTRACTS\nimport \"./Users.sol\";\nimport \"./Devices.sol\";\n\ncontract Main {\n\n    // HELPER CONTRACT ADDRESSES\n    address users_address;\n    address devices_address;\n\n    // CONSTRUCTOR\n    constructor(address _users, address _devices) public {\n        users_address = _users;\n        devices_address = _devices;\n    }\n\n    // CONTRACT MASTER\n    address private master = 0x0663713B3eBab96650b0B8b2a48015415538cd4c;\n\n    // CHECK PERMISSION TO EXECUTE\n    function permission(address sender) public view returns(bool) {\n\n        // DEFAULT TO FALSE\n        bool response = false;\n\n        // IF SENDER IS MASTER, CHANGE TO TRUE\n        if (sender == master) {\n            response = true;\n        }\n\n        // RETURN RESPONSE\n        return response;\n    }\n\n    function add_user(address _owner, string memory _name) public {\n        Users(users_address).set(_owner, _name);\n    }\n}",
  "sourcePath": "/home/bdalab/wickstjo/decentralized-iot/contracts/Main.sol",
  "compiler": {
    "name": "solc",
    "version": "0.5.0+commit.1d4f565a.Emscripten.clang"
  },
  "schemaVersion": "3.0.9",
  "updatedAt": "2019-06-03T06:32:07.687Z",
  "devdoc": {
    "methods": {}
  },
  "userdoc": {
    "methods": {}
  }
}