{
  "contractName": "Main",
  "abi": [
    {
      "constant": true,
      "inputs": [],
      "name": "foobar",
      "outputs": [
        {
          "name": "",
          "type": "string"
        }
      ],
      "payable": false,
      "stateMutability": "view",
      "type": "function"
    },
    {
      "constant": true,
      "inputs": [],
      "name": "getMessage",
      "outputs": [
        {
          "name": "",
          "type": "string"
        }
      ],
      "payable": false,
      "stateMutability": "view",
      "type": "function"
    }
  ],
  "bytecode": "0x60c0604052601260808190527f7468697320697320612066756e6374696f6e000000000000000000000000000060a090815261003e9160009190610096565b506040805180820190915260128082527f746869732069732061207661726961626c650000000000000000000000000000602090920191825261008391600191610096565b5034801561009057600080fd5b50610131565b828054600181600116156101000203166002900490600052602060002090601f016020900481019282601f106100d757805160ff1916838001178555610104565b82800160010185558215610104579182015b828111156101045782518255916020019190600101906100e9565b50610110929150610114565b5090565b61012e91905b80821115610110576000815560010161011a565b90565b61023e806101406000396000f3fe60806040526004361061004b5763ffffffff7c010000000000000000000000000000000000000000000000000000000060003504166305df75db8114610050578063ce6d41de146100da575b600080fd5b34801561005c57600080fd5b506100656100ef565b6040805160208082528351818301528351919283929083019185019080838360005b8381101561009f578181015183820152602001610087565b50505050905090810190601f1680156100cc5780820380516001836020036101000a031916815260200191505b509250505060405180910390f35b3480156100e657600080fd5b5061006561017c565b60018054604080516020600284861615610100026000190190941693909304601f810184900484028201840190925281815292918301828280156101745780601f1061014957610100808354040283529160200191610174565b820191906000526020600020905b81548152906001019060200180831161015757829003601f168201915b505050505081565b60008054604080516020601f60026000196101006001881615020190951694909404938401819004810282018101909252828152606093909290918301828280156102085780601f106101dd57610100808354040283529160200191610208565b820191906000526020600020905b8154815290600101906020018083116101eb57829003601f168201915b505050505090509056fea165627a7a7230582022422c24f810a044e46e5eeb8c644a618fa58ec5b077d70a51840368fa99f2a20029",
  "source": "pragma solidity ^0.5.0;\n\ncontract Main {\n\n    string message = \"this is a function\";\n    string public foobar = \"this is a variable\";\n\n    function getMessage() public view returns(string memory) {\n        return message;\n    }\n}",
  "sourcePath": "/home/bdalab/wickstjo/decentralized-iot/contracts/Main.sol",
  "compiler": {
    "name": "solc",
    "version": "0.5.0+commit.1d4f565a.Emscripten.clang"
  },
  "schemaVersion": "3.0.9",
  "updatedAt": "2019-05-29T03:55:50.529Z",
  "devdoc": {
    "methods": {}
  },
  "userdoc": {
    "methods": {}
  }
}