{
  "contractName": "Main",
  "abi": [
    {
      "constant": true,
      "inputs": [
        {
          "name": "",
          "type": "uint256"
        }
      ],
      "name": "people",
      "outputs": [
        {
          "name": "",
          "type": "string"
        }
      ],
      "payable": false,
      "stateMutability": "view",
      "type": "function"
    },
    {
      "constant": false,
      "inputs": [
        {
          "name": "person",
          "type": "string"
        }
      ],
      "name": "add",
      "outputs": [],
      "payable": false,
      "stateMutability": "nonpayable",
      "type": "function"
    },
    {
      "constant": true,
      "inputs": [
        {
          "name": "id",
          "type": "uint256"
        }
      ],
      "name": "person",
      "outputs": [
        {
          "name": "",
          "type": "string"
        }
      ],
      "payable": false,
      "stateMutability": "view",
      "type": "function"
    },
    {
      "constant": true,
      "inputs": [],
      "name": "everyone",
      "outputs": [
        {
          "name": "",
          "type": "string[]"
        }
      ],
      "payable": false,
      "stateMutability": "view",
      "type": "function"
    }
  ],
  "bytecode": "0x608060405234801561001057600080fd5b50610662806100206000396000f3fe6080604052600436106100615763ffffffff7c0100000000000000000000000000000000000000000000000000000000600035041663092a182081146100665780639e7a13ad1461009c578063b0c8f9dc146100bc578063cb23e6d7146100de575b600080fd5b34801561007257600080fd5b506100866100813660046104ad565b610100565b6040516100939190610578565b60405180910390f35b3480156100a857600080fd5b506100866100b73660046104ad565b6101ab565b3480156100c857600080fd5b506100dc6100d7366004610470565b610252565b005b3480156100ea57600080fd5b506100f3610298565b6040516100939190610567565b606060008281548110151561011157fe5b600091825260209182902001805460408051601f600260001961010060018716150201909416939093049283018590048502810185019091528181529283018282801561019f5780601f106101745761010080835404028352916020019161019f565b820191906000526020600020905b81548152906001019060200180831161018257829003601f168201915b50505050509050919050565b60008054829081106101b957fe5b600091825260209182902001805460408051601f600260001961010060018716150201909416939093049283018590048502810185019091528181529350909183018282801561024a5780601f1061021f5761010080835404028352916020019161024a565b820191906000526020600020905b81548152906001019060200180831161022d57829003601f168201915b505050505081565b60008054600181018083559180528251610293917f290decd9548b62a8d60345a988386fc84ba6bc95484008f6362f93160ef3e56301906020850190610371565b505050565b60606000805480602002602001604051908101604052809291908181526020016000905b828210156103675760008481526020908190208301805460408051601f60026000196101006001871615020190941693909304928301859004850281018501909152818152928301828280156103535780601f1061032857610100808354040283529160200191610353565b820191906000526020600020905b81548152906001019060200180831161033657829003601f168201915b5050505050815260200190600101906102bc565b5050505090505b90565b828054600181600116156101000203166002900490600052602060002090601f016020900481019282601f106103b257805160ff19168380011785556103df565b828001600101855582156103df579182015b828111156103df5782518255916020019190600101906103c4565b506103eb9291506103ef565b5090565b61036e91905b808211156103eb57600081556001016103f5565b6000601f8201831361041a57600080fd5b813561042d610428826105b0565b610589565b9150808252602083016020830185838301111561044957600080fd5b6104548382846105e2565b50505092915050565b6000610469823561036e565b9392505050565b60006020828403121561048257600080fd5b813567ffffffffffffffff81111561049957600080fd5b6104a584828501610409565b949350505050565b6000602082840312156104bf57600080fd5b60006104a5848461045d565b60006104d6826105de565b808452602084019350836020820285016104ef856105d8565b60005b8481101561052657838303885261050a838351610532565b9250610515826105d8565b6020989098019791506001016104f2565b50909695505050505050565b600061053d826105de565b8084526105518160208601602086016105ee565b61055a8161061e565b9093016020019392505050565b6020808252810161046981846104cb565b602080825281016104698184610532565b60405181810167ffffffffffffffff811182821017156105a857600080fd5b604052919050565b600067ffffffffffffffff8211156105c757600080fd5b506020601f91909101601f19160190565b60200190565b5190565b82818337506000910152565b60005b838110156106095781810151838201526020016105f1565b83811115610618576000848401525b50505050565b601f01601f19169056fea265627a7a7230582060addb13d28e5d273aa54645890a7cb51a3bda28ecdc57783ac10540ca8e5fbc6c6578706572696d656e74616cf50037",
  "source": "pragma solidity ^0.5.0;\npragma experimental ABIEncoderV2;\n\ncontract Main {\n\n    string[] public people;\n\n    function add(string memory person) public {\n        people.push(person);\n    }\n\n    function person(uint id) public view returns(string memory) {\n        return people[id];\n    }\n\n    function everyone() public view returns(string[] memory) {\n        return people;\n    }\n}\n\n// contract Main {\n\n//     // DATA VAR\n//     string data = 'secret data';\n\n//     bytes32 img;\n\n//     // GET DATA\n//     function get_data() public view returns (string memory) {\n//         return data;\n//     }\n\n//     // SET DATA\n//     function set_data (string memory _data) public {\n//         data = _data;\n//     }\n// }",
  "sourcePath": "/home/bdalab/wickstjo/decentralized-iot/contracts/Main.sol",
  "compiler": {
    "name": "solc",
    "version": "0.5.0+commit.1d4f565a.Emscripten.clang"
  },
  "schemaVersion": "3.0.9",
  "updatedAt": "2019-05-31T05:45:04.324Z",
  "devdoc": {
    "methods": {}
  },
  "userdoc": {
    "methods": {}
  }
}