{
  "contractName": "Main",
  "abi": [
    {
      "constant": true,
      "inputs": [
        {
          "name": "sender",
          "type": "address"
        }
      ],
      "name": "permission",
      "outputs": [
        {
          "name": "",
          "type": "bool"
        }
      ],
      "payable": false,
      "stateMutability": "view",
      "type": "function"
    }
  ],
  "bytecode": "0x608060405260008054600160a060020a031916730663713b3ebab96650b0b8b2a48015415538cd4c17905534801561003657600080fd5b5060ee806100456000396000f3fe608060405260043610603e5763ffffffff7c010000000000000000000000000000000000000000000000000000000060003504166368226a7881146043575b600080fd5b348015604e57600080fd5b50607f60048036036020811015606357600080fd5b503573ffffffffffffffffffffffffffffffffffffffff166093565b604080519115158252519081900360200190f35b60008054819073ffffffffffffffffffffffffffffffffffffffff8481169116141560bc575060015b9291505056fea165627a7a72305820a349e50795136fc3b25861a4d0bff87e12b91a80780ae3dea8f03699c4a969c70029",
  "source": "pragma solidity ^0.5.0;\n\n// IMPORT USERS CONTRACT\nimport \"./Users.sol\" as users;\n\n// IMPORT DEVICES CONTRACT\nimport \"./Devices.sol\" as devices;\n\ncontract Main {\n\n    // CONTRACT MASTER\n    address private master = 0x0663713B3eBab96650b0B8b2a48015415538cd4c;\n\n    // CHECK PERMISSION TO EXECUTE\n    function permission(address sender) public view returns(bool) {\n\n        // DEFAULT TO FALSE\n        bool response = false;\n\n        // IF SENDER IS MASTER, CHANGE TO TRUE\n        if (sender == master) {\n            response = true;\n        }\n\n        // RETURN RESPONSE\n        return response;\n    }\n}",
  "sourcePath": "/home/bdalab/wickstjo/decentralized-iot/contracts/Main.sol",
  "compiler": {
    "name": "solc",
    "version": "0.5.0+commit.1d4f565a.Emscripten.clang"
  },
  "schemaVersion": "3.0.9",
  "updatedAt": "2019-06-03T05:42:37.068Z",
  "devdoc": {
    "methods": {}
  },
  "userdoc": {
    "methods": {}
  }
}