{
  "contractName": "Users",
  "abi": [
    {
      "constant": false,
      "inputs": [
        {
          "name": "_owner",
          "type": "address"
        },
        {
          "name": "_name",
          "type": "string"
        }
      ],
      "name": "set",
      "outputs": [],
      "payable": false,
      "stateMutability": "nonpayable",
      "type": "function"
    },
    {
      "constant": false,
      "inputs": [
        {
          "name": "_user",
          "type": "address"
        }
      ],
      "name": "remove",
      "outputs": [],
      "payable": false,
      "stateMutability": "nonpayable",
      "type": "function"
    },
    {
      "constant": true,
      "inputs": [
        {
          "name": "_user",
          "type": "address"
        }
      ],
      "name": "fetch",
      "outputs": [
        {
          "components": [
            {
              "name": "name",
              "type": "string"
            }
          ],
          "name": "",
          "type": "tuple"
        }
      ],
      "payable": false,
      "stateMutability": "view",
      "type": "function"
    }
  ],
  "bytecode": "0x608060405234801561001057600080fd5b50610551806100206000396000f3fe6080604052600436106100565763ffffffff7c010000000000000000000000000000000000000000000000000000000060003504166329092d0e811461005b5780635a82d1001461007d578063f109a0be1461009d575b600080fd5b34801561006757600080fd5b5061007b610076366004610375565b6100d3565b005b34801561008957600080fd5b5061007b61009836600461039b565b610108565b3480156100a957600080fd5b506100bd6100b8366004610375565b610155565b6040516100ca9190610443565b60405180910390f35b73ffffffffffffffffffffffffffffffffffffffff8116600090815260208190526040812090610103828261021a565b505050565b604080516020818101835283825273ffffffffffffffffffffffffffffffffffffffff8516600090815280825292909220815180519293919261014e9284920190610261565b5050505050565b61015d6102df565b73ffffffffffffffffffffffffffffffffffffffff8216600090815260208181526040918290208251815460026001821615610100026000190190911604601f8101849004840282018501855292810183815290939192849284919084018282801561020a5780601f106101df5761010080835404028352916020019161020a565b820191906000526020600020905b8154815290600101906020018083116101ed57829003601f168201915b5050505050815250509050919050565b50805460018160011615610100020316600290046000825580601f10610240575061025e565b601f01602090049060005260206000209081019061025e91906102f1565b50565b828054600181600116156101000203166002900490600052602060002090601f016020900481019282601f106102a257805160ff19168380011785556102cf565b828001600101855582156102cf579182015b828111156102cf5782518255916020019190600101906102b4565b506102db9291506102f1565b5090565b60408051602081019091526060815290565b61030b91905b808211156102db57600081556001016102f7565b90565b600061031a82356104c0565b9392505050565b6000601f8201831361033257600080fd5b81356103456103408261047b565b610454565b9150808252602083016020830185838301111561036157600080fd5b61036c8382846104d1565b50505092915050565b60006020828403121561038757600080fd5b6000610393848461030e565b949350505050565b600080604083850312156103ae57600080fd5b60006103ba858561030e565b925050602083013567ffffffffffffffff8111156103d757600080fd5b6103e385828601610321565b9150509250929050565b60006103f8826104a3565b80845261040c8160208601602086016104dd565b6104158161050d565b9093016020019392505050565b805160208084526000919084019061043a82826103ed565b95945050505050565b6020808252810161031a8184610422565b60405181810167ffffffffffffffff8111828210171561047357600080fd5b604052919050565b600067ffffffffffffffff82111561049257600080fd5b506020601f91909101601f19160190565b5190565b73ffffffffffffffffffffffffffffffffffffffff1690565b60006104cb826104a7565b92915050565b82818337506000910152565b60005b838110156104f85781810151838201526020016104e0565b83811115610507576000848401525b50505050565b601f01601f19169056fea265627a7a72305820687f5e6b167f89fa2199d7f387ca0472a6a468db5547691b5dc7a5d3ce386c326c6578706572696d656e74616cf50037",
  "source": "pragma solidity ^0.5.0;\npragma experimental ABIEncoderV2;\n\ncontract Users {\n\n   // MAP OF USERS\n   mapping (address => User) users;\n\n   // USER STRUCT\n   struct User {\n      string name;\n   }\n\n   // ADD/UPDATE USER\n   function set(address _owner, string memory _name) public {\n\n      // PUSH NEW USER OBJECT TO ARRAY\n      users[_owner] = User({\n         name: _name\n      });\n   }\n\n   // DELETE USER\n   function remove(address _user) public {\n      delete users[_user];\n   }\n\n   // FETCH USER\n   function fetch(address _user) public view returns(User memory) {\n      return users[_user];\n   }\n}",
  "sourcePath": "/home/bdalab/wickstjo/decentralized-iot/contracts/Users.sol",
  "compiler": {
    "name": "solc",
    "version": "0.5.0+commit.1d4f565a.Emscripten.clang"
  },
  "schemaVersion": "3.0.9",
  "updatedAt": "2019-06-03T05:42:36.805Z",
  "devdoc": {
    "methods": {}
  },
  "userdoc": {
    "methods": {}
  }
}