{
  "contractName": "Main",
  "abi": [
    {
      "constant": true,
      "inputs": [
        {
          "name": "",
          "type": "address"
        }
      ],
      "name": "whitelist",
      "outputs": [
        {
          "name": "name",
          "type": "string"
        },
        {
          "name": "permission",
          "type": "string"
        },
        {
          "name": "timestamp",
          "type": "uint256"
        },
        {
          "name": "modified",
          "type": "bool"
        }
      ],
      "payable": false,
      "stateMutability": "view",
      "type": "function"
    },
    {
      "constant": true,
      "inputs": [],
      "name": "foo",
      "outputs": [
        {
          "name": "",
          "type": "address"
        }
      ],
      "payable": false,
      "stateMutability": "view",
      "type": "function"
    },
    {
      "constant": false,
      "inputs": [
        {
          "name": "_name",
          "type": "string"
        },
        {
          "name": "_permission",
          "type": "string"
        },
        {
          "name": "_owner",
          "type": "address"
        }
      ],
      "name": "add",
      "outputs": [],
      "payable": false,
      "stateMutability": "nonpayable",
      "type": "function"
    },
    {
      "constant": false,
      "inputs": [
        {
          "name": "_owner",
          "type": "address"
        },
        {
          "name": "_permission",
          "type": "string"
        }
      ],
      "name": "change",
      "outputs": [],
      "payable": false,
      "stateMutability": "nonpayable",
      "type": "function"
    }
  ],
  "bytecode": "0x608060405260018054600160a060020a03191673fffc9f737d80e9031f8b1b01d7faf59ce45def3b17905534801561003657600080fd5b506106f7806100466000396000f3fe6080604052600436106100615763ffffffff7c010000000000000000000000000000000000000000000000000000000060003504166389d4a31681146100665780639b19251a146101ad578063c2985578146102cc578063cdda8772146102fd575b600080fd5b34801561007257600080fd5b506101ab6004803603606081101561008957600080fd5b8101906020810181356401000000008111156100a457600080fd5b8201836020820111156100b657600080fd5b803590602001918460018302840111640100000000831117156100d857600080fd5b91908080601f016020809104026020016040519081016040528093929190818152602001838380828437600092019190915250929594936020810193503591505064010000000081111561012b57600080fd5b82018360208201111561013d57600080fd5b8035906020019184600183028401116401000000008311171561015f57600080fd5b91908080601f01602080910402602001604051908101604052809392919081815260200183838082843760009201919091525092955050509035600160a060020a031691506103c09050565b005b3480156101b957600080fd5b506101e0600480360360208110156101d057600080fd5b5035600160a060020a0316610470565b60408051908101839052811515606082015260808082528551908201528451819060208083019160a084019189019080838360005b8381101561022d578181015183820152602001610215565b50505050905090810190601f16801561025a5780820380516001836020036101000a031916815260200191505b50838103825286518152865160209182019188019080838360005b8381101561028d578181015183820152602001610275565b50505050905090810190601f1680156102ba5780820380516001836020036101000a031916815260200191505b50965050505050505060405180910390f35b3480156102d857600080fd5b506102e16105bc565b60408051600160a060020a039092168252519081900360200190f35b34801561030957600080fd5b506101ab6004803603604081101561032057600080fd5b600160a060020a03823516919081019060408101602082013564010000000081111561034b57600080fd5b82018360208201111561035d57600080fd5b8035906020019184600183028401116401000000008311171561037f57600080fd5b91908080601f0160208091040260200160405190810160405280939291908181526020018383808284376000920191909152509295506105cb945050505050565b600154600160a060020a031633141561046b57600160a060020a038116600090815260208190526040902060020154151561046b57600160a060020a038116600090815260208181526040909120845161041c92860190610630565b50600160a060020a038116600090815260208181526040909120835161044a92600190920191850190610630565b50600160a060020a0381166000908152602081905260409020426002909101555b505050565b6000602081815291815260409081902080548251601f6002600019610100600186161502019093169290920491820185900485028101850190935280835290928391908301828280156105045780601f106104d957610100808354040283529160200191610504565b820191906000526020600020905b8154815290600101906020018083116104e757829003601f168201915b505050505090806001018054600181600116156101000203166002900480601f0160208091040260200160405190810160405280929190818152602001828054600181600116156101000203166002900480156105a25780601f10610577576101008083540402835291602001916105a2565b820191906000526020600020905b81548152906001019060200180831161058557829003601f168201915b50505050600283015460039093015491929160ff16905084565b600154600160a060020a031681565b600154600160a060020a031633141561062c57600160a060020a0382166000908152602081905260409020600201541561062c57600160a060020a038216600090815260208181526040909120825161046b92600190920191840190610630565b5050565b828054600181600116156101000203166002900490600052602060002090601f016020900481019282601f1061067157805160ff191683800117855561069e565b8280016001018555821561069e579182015b8281111561069e578251825591602001919060010190610683565b506106aa9291506106ae565b5090565b6106c891905b808211156106aa57600081556001016106b4565b9056fea165627a7a723058202efd9900370fc942067bb0c25a05d14bd75cf8152ecaa33bc8fc84245e6500cc0029",
  "source": "pragma solidity ^0.5.0;\n\ncontract Main {\n\n    // WHITELIST\n    mapping (address => User) public whitelist;\n\n    // DECLARE foo\n    address public foo = 0xFffC9F737D80E9031F8b1B01D7FAF59Ce45def3B;\n\n    // USER OBJECT\n    struct User {\n        string name;\n        string permission;\n        uint256 timestamp;\n        bool modified;\n    }\n\n    // ADD MEMBER\n    function add(string memory _name, string memory _permission, address _owner) public {\n\n        // MAKE SURE CALLER ADDRESS IS foo\n        if (msg.sender == foo) {\n\n            // CHECK THAT ENTRY DOESNT ALREADY EXIST IN MAP\n            if (whitelist[_owner].timestamp == 0) {\n\n                // GENERATE & PUSH NEW STRUCT\n                whitelist[_owner].name = _name;\n                whitelist[_owner].permission = _permission;\n                whitelist[_owner].timestamp = now;\n            }\n        }\n    }\n\n    // CHANGE PERMISSION OF EXISTING USER\n    function change(address _owner, string memory _permission) public {\n\n        // MAKE SURE CALLER ADDRESS IS foo\n        if (msg.sender == foo) {\n\n            // MAKE SURE THAT ENTRY EXISTS\n            if (whitelist[_owner].timestamp != 0) {\n                whitelist[_owner].permission = _permission;\n            }\n        }\n    }\n}",
  "sourcePath": "/home/bdalab/wickstjo/decentralized-iot/contracts/Main.sol",
  "compiler": {
    "name": "solc",
    "version": "0.5.0+commit.1d4f565a.Emscripten.clang"
  },
  "schemaVersion": "3.0.9",
  "updatedAt": "2019-05-23T08:11:12.396Z",
  "devdoc": {
    "methods": {}
  },
  "userdoc": {
    "methods": {}
  }
}